{
  "transactions": [
    {
      "hash": "0xf4fa71ad89b1c6da55e40920850ffb2e8df1926f525d82bb5da7956f60ee88dd",
      "transactionType": "CALL",
      "contractName": null,
      "contractAddress": "0xa4d31fad3d2b0b2777f639e6fbe125368fd4d845",
      "function": "_supportMarket(address)",
      "arguments": [
        "0x307992307C89216b1079C7c5Cbc4F51005b1472D"
      ],
      "transaction": {
        "from": "0x27ddf44ec9e32343599f7b939e4c35c034f78076",
        "to": "0xa4d31fad3d2b0b2777f639e6fbe125368fd4d845",
        "gas": "0x1f581",
        "value": "0x0",
        "input": "0xa76b3fda000000000000000000000000307992307c89216b1079c7c5cbc4f51005b1472d",
        "nonce": "0x3d",
        "chainId": "0x3e9"
      },
      "additionalContracts": [],
      "isFixedGasLimit": false
    },
    {
      "hash": "0x36708d716f87706944fc67beaa6dcd59cbafaca2a7a9a0aca1d2467f09397ddd",
      "transactionType": "CALL",
      "contractName": null,
      "contractAddress": "0xa4d31fad3d2b0b2777f639e6fbe125368fd4d845",
      "function": "_setCollateralFactor(address,uint256)",
      "arguments": [
        "0x307992307C89216b1079C7c5Cbc4F51005b1472D",
        "750000000000000000"
      ],
      "transaction": {
        "from": "0x27ddf44ec9e32343599f7b939e4c35c034f78076",
        "to": "0xa4d31fad3d2b0b2777f639e6fbe125368fd4d845",
        "gas": "0x19932",
        "value": "0x0",
        "input": "0xe4028eee000000000000000000000000307992307c89216b1079c7c5cbc4f51005b1472d0000000000000000000000000000000000000000000000000a688906bd8b0000",
        "nonce": "0x3e",
        "chainId": "0x3e9"
      },
      "additionalContracts": [],
      "isFixedGasLimit": false
    },
    {
      "hash": "0x99e6e242af0303f273a3d50fd8dba485ce63b09076feb97e248fe971173b0a4a",
      "transactionType": "CALL",
      "contractName": null,
      "contractAddress": "0xa4d31fad3d2b0b2777f639e6fbe125368fd4d845",
      "function": "_setMarketBorrowCaps(address[],uint256[])",
      "arguments": [
        "[0x307992307C89216b1079C7c5Cbc4F51005b1472D]",
        "[1]"
      ],
      "transaction": {
        "from": "0x27ddf44ec9e32343599f7b939e4c35c034f78076",
        "to": "0xa4d31fad3d2b0b2777f639e6fbe125368fd4d845",
        "gas": "0x10a7a",
        "value": "0x0",
        "input": "0x607ef6c1000000000000000000000000000000000000000000000000000000000000004000000000000000000000000000000000000000000000000000000000000000800000000000000000000000000000000000000000000000000000000000000001000000000000000000000000307992307c89216b1079c7c5cbc4f51005b1472d00000000000000000000000000000000000000000000000000000000000000010000000000000000000000000000000000000000000000000000000000000001",
        "nonce": "0x3f",
        "chainId": "0x3e9"
      },
      "additionalContracts": [],
      "isFixedGasLimit": false
    }
  ],
  "receipts": [
    {
      "status": "0x1",
      "cumulativeGasUsed": "0x16b15",
      "logs": [
        {
          "address": "0xa4d31fad3d2b0b2777f639e6fbe125368fd4d845",
          "topics": [
            "0xcf583bb0c569eb967f806b11601c4cb93c10310485c67add5f8362c2f212321f"
          ],
          "data": "0x000000000000000000000000307992307c89216b1079c7c5cbc4f51005b1472d",
          "blockHash": "0x68db65e42d52d9c59fdbd264bfd697ab469cfc4816544a50696ca9332dbb16c1",
          "blockNumber": "0xba787b9",
          "transactionHash": "0xf4fa71ad89b1c6da55e40920850ffb2e8df1926f525d82bb5da7956f60ee88dd",
          "transactionIndex": "0x0",
          "logIndex": "0x0",
          "removed": false
        }
      ],
      "logsBloom": "0x00000000000000000000000000000000000000000000000000000001000000000000000000000000000000000000000000000000000000000000000000000000000000000000000000000000000000000000000000000000000000000000000000000000000000000000000000000000000000000080000800000000000000000000000000000000000000000000000000000000000000000000000000000000000000000000000000000000000000000000000000000000000000000000000000000000000010000000000000000000000000000000000000000000000000000100000000000000200000000000000000000000000000000000000000000000",
      "type": "0x2",
      "transactionHash": "0xf4fa71ad89b1c6da55e40920850ffb2e8df1926f525d82bb5da7956f60ee88dd",
      "transactionIndex": "0x0",
      "blockHash": "0x68db65e42d52d9c59fdbd264bfd697ab469cfc4816544a50696ca9332dbb16c1",
      "blockNumber": "0xba787b9",
      "gasUsed": "0x16b15",
      "effectiveGasPrice": "0x5d21dba01",
      "from": "0x27ddf44ec9e32343599f7b939e4c35c034f78076",
      "to": "0xa4d31fad3d2b0b2777f639e6fbe125368fd4d845",
      "contractAddress": null
    },
    {
      "status": "0x1",
      "cumulativeGasUsed": "0x282e0",
      "logs": [
        {
          "address": "0xa4d31fad3d2b0b2777f639e6fbe125368fd4d845",
          "topics": [
            "0x70483e6592cd5182d45ac970e05bc62cdcc90e9d8ef2c2dbe686cf383bcd7fc5"
          ],
          "data": "0x000000000000000000000000307992307c89216b1079c7c5cbc4f51005b1472d00000000000000000000000000000000000000000000000000000000000000000000000000000000000000000000000000000000000000000a688906bd8b0000",
          "blockHash": "0x68db65e42d52d9c59fdbd264bfd697ab469cfc4816544a50696ca9332dbb16c1",
          "blockNumber": "0xba787b9",
          "transactionHash": "0x36708d716f87706944fc67beaa6dcd59cbafaca2a7a9a0aca1d2467f09397ddd",
          "transactionIndex": "0x1",
          "logIndex": "0x1",
          "removed": false
        }
      ],
      "logsBloom": "0x00000000000000000000000000000000000000000000000000000000000000000000000000000000008000000000000000000000000000000000000000000000000000000000000000000000000000000000000000000000000000000000000000000000000000000000000000000000000000000080000800000000000000000000000000000000000000000000000000000000000000008000000000000000000000000000000000000000000010000000000000000000000000000000000000000000000010000000000000000000000000000000000000000000000000000000000000000000000000000000000000000000000000000000000000000000",
      "type": "0x2",
      "transactionHash": "0x36708d716f87706944fc67beaa6dcd59cbafaca2a7a9a0aca1d2467f09397ddd",
      "transactionIndex": "0x1",
      "blockHash": "0x68db65e42d52d9c59fdbd264bfd697ab469cfc4816544a50696ca9332dbb16c1",
      "blockNumber": "0xba787b9",
      "gasUsed": "0x117cb",
      "effectiveGasPrice": "0x5d21dba01",
      "from": "0x27ddf44ec9e32343599f7b939e4c35c034f78076",
      "to": "0xa4d31fad3d2b0b2777f639e6fbe125368fd4d845",
      "contractAddress": null
    },
    {
      "status": "0x1",
      "cumulativeGasUsed": "0x343ce",
      "logs": [
        {
          "address": "0xa4d31fad3d2b0b2777f639e6fbe125368fd4d845",
          "topics": [
            "0x6f1951b2aad10f3fc81b86d91105b413a5b3f847a34bbc5ce1904201b14438f6",
            "0x000000000000000000000000307992307c89216b1079c7c5cbc4f51005b1472d"
          ],
          "data": "0x0000000000000000000000000000000000000000000000000000000000000001",
          "blockHash": "0x68db65e42d52d9c59fdbd264bfd697ab469cfc4816544a50696ca9332dbb16c1",
          "blockNumber": "0xba787b9",
          "transactionHash": "0x99e6e242af0303f273a3d50fd8dba485ce63b09076feb97e248fe971173b0a4a",
          "transactionIndex": "0x2",
          "logIndex": "0x2",
          "removed": false
        }
      ],
      "logsBloom": "0x00000000000000000000000000000000100000000000000000000000000000000000000000000000000800000000000000000000000000000000000000000000000000000000000000000000000000000000000000000000000800000000000080000000000000000000000000000000004000000080000800000000000004000000000000000000000000000000000000000000000000000000000000000000000000000000000000000000000000000000000000000000000000000000000000000000000010000000000000000000000000000000000000000000000000000000000000000000000000000000000000000000000000000000000000000000",
      "type": "0x2",
      "transactionHash": "0x99e6e242af0303f273a3d50fd8dba485ce63b09076feb97e248fe971173b0a4a",
      "transactionIndex": "0x2",
      "blockHash": "0x68db65e42d52d9c59fdbd264bfd697ab469cfc4816544a50696ca9332dbb16c1",
      "blockNumber": "0xba787b9",
      "gasUsed": "0xc0ee",
      "effectiveGasPrice": "0x5d21dba01",
      "from": "0x27ddf44ec9e32343599f7b939e4c35c034f78076",
      "to": "0xa4d31fad3d2b0b2777f639e6fbe125368fd4d845",
      "contractAddress": null
    }
  ],
  "libraries": [],
  "pending": [],
  "returns": {},
  "timestamp": 1757166289,
  "chain": 1001,
  "commit": "c71f632"
}